:100000001CC02EC02DC02CC02BC02AC029C028C0A7
:1000100027C026C025C024C023C022C021C020C0C4
:100020001FC01EC01DC026C028C02AC02CC02EC0A4
:1000300030C032C034C036C038C011241FBECFE536
:10004000D4E0DEBFCDBF10E0A0E6B0E0E2E7F4E030
:1000500002C005900D92A036B107D9F7D7D107C2DB
:10006000CFCF2FEF27BBFC018A30910500F5ED5E65
:10007000FF4F09948FE388BB089586E088BB0895FD
:100080008BE588BB08958FE488BB089586E688BB1E
:1000900008958DE688BB08958DE788BB089587E0B5
:1000A00088BB08958FEF88BB08958FE688BB0895BD
:1000B000A5E3B0E08C918F7D8C93E4E3F0E0808148
:1000C0008062808388EE93E00197F1F780818F7DD5
:1000D00080838C9180628C93E2E3F0E08081806782
:1000E000808385E58A95F1F780818F788083E3E3CB
:1000F000F0E020818CEA93E00197F1F7808185FDA3
:1001000002C080E00895822F829586958770809541
:1001100081700895A4E3B0E09C919F7D9C93E5E3FA
:10012000F0E09081906290839DE09A95F1F7908144
:100130009F7D90839C9190629C93813021F48AE111
:100140008A95F1F703C080EA8A95F1F7E4E3F0E0DD
:1001500080818F7D8083E5E3F0E080818062808311
:1001600085ED8A95F1F70895A5E3B0E08C918F7D38
:100170008C93E4E3F0E080818062808388E28A955A
:10018000F1F780818F7D80838C9180628C9385E3F1
:100190008A95F1F783B395E89A95F1F790E09695F3
:1001A0008795929582958F7089279F708927817096
:1001B00008950F931F93CF93DF93C0E0D0E0082FF3
:1001C000112707FD1095C8010C2E02C09595879543
:1001D0000A94E2F781709EDF2196C830D10599F725
:1001E00088EC90E00197F1F7DF91CF911F910F918B
:1001F0000895EF92FF920F931F93CF93DF93C0E088
:10020000D0E0EE24FF24E39408E2AEDF882341F03F
:10021000C7010C2E02C0880F991F0A94E2F7182B11
:10022000802F8A95F1F72196C830D10571F7812F7B
:10023000DF91CF911F910F91FF90EF9008950F9351
:100240001F93E1E3F0E0808180678083E2E3F0E0E8
:1002500080818F7880832CDF813009F03DC002E3FC
:1002600010E0F8018081806780838CECA2DF84E459
:10027000A0DFF80180818F7880832CE43DE148EC99
:1002800050E0CA010197F1F721503040D1F710DF5B
:1002900002E310E0F8018081806780838CEC89DFC5
:1002A00083E487DFF80180818F788083A2DF182FB5
:1002B000A0DF382F20E0210F311D332314F4215FFC
:1002C0003F4F359527953595279535952795359544
:1002D0002795822F932F00C01F910F9108954F9261
:1002E0005F926F927F928F929F92AF92BF92CF92C6
:1002F000DF92EF92FF920F931F93CF93DF939C01B6
:10030000E4E3F0E080818E6080838FEF87BB33234E
:1003100014F0772405C0309521953F4F77247394CE
:10032000C9016AE070E07CD0882E992EC9016AE08C
:1003300070E076D0A62EB72E00E010E0C5E3D0E046
:100340000F2EF1E3EF2EFF24F02D0F2EF0E1CF2E34
:10035000F7E2DF2EF02D6624689463F80F2EF2E3A7
:100360004F2E5524F02D888188608883F701808185
:100370008F7780838881877F8883882D992D71DE90
:1003800088818C608883C6010197F1F788818B7F13
:10039000888368828A2D9B2D64DE88818A608883A9
:1003A000C6010197F1F788818D7F8883772091F0CE
:1003B000F701808180688083F20180818F7780835C
:1003C00088E090E04EDEC6010197F1F7F7018081E9
:1003D0008F7780830F5F1F4F0A30110509F0C3CF5D
:1003E000E1E3F0E080818F678083DF91CF911F91FF
:1003F0000F91FF90EF90DF90CF90BF90AF909F90C4
:100400008F907F906F905F904F900895E4E3F0E0BD
:100410008081866080838FEF81BB11DF60DFFDCF3D
:1004200097FB092E07260AD077FD04D00CD006D002
:1004300000201AF4709561957F4F0895F6F7909516
:1004400081959F4F0895AA1BBB1B51E107C0AA1FAE
:10045000BB1FA617B70710F0A61BB70B881F991F65
:100460005A95A9F780959095BC01CD010895F8940F
:02047000FFCFBC
:00000001FF
